:020000040000FA
:020000000328D3
:040002000034003492
:0A000600831203138501831603170C
:100010008801890183160313850186018701880100
:10002000890100308700FF308800031383128501A7
:100030008601870188018901C201C301C4013428F6
:100040000510013086008514E1228510E1220C3074
:1000500086008514E1228510E1223C30860085145B
:10006000E1228510E122080020201A223D224414BA
:10007000B1223F204410BB226820DF213428912088
:10008000421C3F284108A5009120421C44284108F9
:10009000A6009120421C49284108A7009120421C3B
:1000A0004E284108A8009120421C53284108A9006D
:1000B0009120421C58284108B0009120421C5D2824
:1000C0004108B1009120421C62284108B20008009A
:1000D0009120421C68284108B3009120421C6D28E1
:1000E0004108B4009120421C72284108B5009120BB
:1000F000421C77284108B6009120421C7C28410808
:10010000B7009120421C81284108B8009120421C70
:1001100086284108B9009120421C8B284108C00064
:100120000800421007140818B12088182021081967
:1001300071218819DD21071087140818D620881826
:100140003B2108198C218819C2218710071508182E
:10015000FB20881856210819A7218819DE210711CC
:1001600008003130C10031308600D022DC22D0229C
:10017000441CCE28C3220510E12243088600C30A8E
:10018000DC220514E1222A308600D022DC22D02293
:10019000000000000000000000000000000000005F
:1001A0000000000042140818D32808003230C100B3
:1001B00032308600D022DC22D022441CF328C32215
:1001C0000510E12243088600C30ADC220514E1225F
:1001D0002A308600D022DC22D0220000000000005D
:1001E00000000000000000000000000000004214B9
:1001F0000818F82808003330C10033308600D022B8
:10020000DC22D022441C1829C3220510E122430815
:100210008600C30ADC220514E1222A308600D0229F
:10022000DC22D022000000000000000000000000DE
:100230000000000000000000421408181D290800FA
:100240003430C10034308600DC22441C3629C322FD
:100250000510E12243088600DC220514E1222A3041
:100260008600DC22C30A00000000000000004214E7
:100270008818382908003530C10035308600DC2266
:10028000441C5129C3220510E12243088600DC22C8
:100290000514E1222A308600DC22C30A0000000097
:1002A0000000000042148818532908003630C100AD
:1002B00036308600DC22441C6C29C3220510E12262
:1002C00043088600DC220514E1222A308600DC2265
:1002D000C30A0000000000000000421488186E29C4
:1002E00008003730C10037308600DC22441C8729E3
:1002F000C3220510E12243088600DC220514E12216
:100300002A308600DC22C30A000000000000000042
:1003100042140819892908003830C1003830860095
:10032000DC22441CA229C3220510E12243088600D6
:10033000DC220514E1222A308600DC22C30A0000F8
:1003400000000000000042140819A42908003930F8
:10035000C10039308600DC22421CBD29C3220510B1
:10036000E12243088600DC220514E1222A308600BF
:10037000DC22C30A0000000000000000421408193B
:10038000BF2908003030C10030308600DC22441C18
:10039000D829C3220510E12243088600DC22051477
:1003A000E1222A308600DC22C30A0000000000009F
:1003B000000042148819DA290800080008002508FE
:1003C000C1003308C106411C411869222608C1003A
:1003D0003408C106411C411869222708C1003508AC
:1003E000C106411C411869222808C1003608C1060F
:1003F000411C411869222908C1003708C106411C67
:10040000411869223008C1003808C106411C411852
:1004100069223108C1003908C106411C411869220E
:100420003208C1004008C106411C41186922411C24
:10043000902208000510E12280308600DC2205149D
:10044000E12243308600DC224C308600DC22413041
:100450008600DC2256308600DC2245308600DC2215
:100460003A308600DC2220308600DC2220308600F4
:10047000DC2220308600DC2208000510E1229030CA
:100480008600DC220514E12256308600DC22413051
:100490008600DC224C308600DC2249308600DC22DB
:1004A00044308600DC2241308600DC224330860066
:1004B000DC2249308600DC224F308600DC224E30C0
:1004C0008600DC223A308600DC2220308600DC22E6
:1004D000080020200510E122C3308600DC2205142C
:1004E000E12249308600DC224E308600DC22433097
:1004F0008600DC224F308600DC2252308600DC226F
:1005000052308600DC2245308600DC2243308600F3
:10051000DC2254308600DC224F308600DC220800CA
:1005200020200510E122C3308600DC220514E122E0
:1005300043308600DC224F308600DC2252308600B9
:10054000DC2252308600DC2245308600DC2243303B
:100550008600DC2254308600DC224F308600DC220C
:1005600008000510E122C030C30043088600DC22E9
:100570000514E12208000510E122D0308600DC22BB
:100580000514E12208001E30A1003630A2003230EE
:10059000A300A30BC92AA20BC72AA10BC52A0800D6
:1005A000A001FF30A40008000510E1220130860000
:1005B000DC220514E12208008514E1228510E122E5
:1005C0000800A0010A30A4005030A000A00BE62AC9
:0605D000A40BE42A080060
:02400E00F42C90
:02401000FF3F70
:00000001FF
